:020000040000FA
:1000000000100020090000004FF000501C494FF084
:1000100000024FF081044FF000054FF000064FF052
:100020000007184BD3F80080FFE7B8F1010F00D0AC
:10003000FBD101F101010B6800F005F805F10105A4
:10004000812DF6D115D013F0010F00D070474FF07D
:100050000109C1F800904FF02B03B5FBF3F7A5EBB6
:10006000070606FB03F34FF00102FFE747608660D7
:10007000CAE74FF06303C0F80130C0F80130C3E7AE
:080080005000002001000020E7
:0400000500000009EE
:00000001FF
